:100000000C942A000C94FA050C9423060C944C06CC
:100010000C9447000C9447000C9499070C944707E4
:100020000C9470070C941E070C9475060C949E0695
:100030000C9447000C94CC070C9447000C94F507E3
:100040000C9447000C9447000C9447000C94470014
:100050000C94470011241FBECFE5D8E0DEBFCDBF12
:1000600011E0A0E6B0E0E2EAF0E102C005900D92F6
:10007000AA35B107D9F721E0AAE5B1E001C01D9288
:10008000A837B207E1F70E9430040C944F080C9493
:1000900000001F93CF93DF93D0E0C0E00E947C026A
:1000A0008835E1F390ED980F9A3020F511E01D0F9F
:1000B0002AE0C29F900D1124C92F0E948B038FEF5D
:1000C00094E32CE0815090402040E1F700C0000014
:1000D0006D2F81E00E9408048AE20E948B038FEF5B
:1000E00094E32CE0815090402040E1F700C00000F4
:1000F000D12FD4CF8D3391F68C2FDF91CF911F91DB
:100100000895CF9380E290E00E94F305C82F81E22A
:1001100090E00E94F30580937701CF3F19F0CC2344
:1001200019F003C080E001C081E0CF9108950E94E2
:10013000FE0381E690E00E948D032FEF89E698E1AF
:10014000215080409040E1F700C0000060E081E075
:100150000E9408040E94490080937701682F81E281
:1001600090E00E94EB0560E080E290E00C94EB05EB
:1001700060E080E00E9408048EE690E00E948D031B
:100180002FEF89E698E1215080409040E1F700C0D0
:100190000000089561E08BE00C94520560E08BE074
:1001A0000C94520580916001833049F50E94FE0352
:1001B0008EE790E00E948D0360E081E00E940804D9
:1001C0000E94CA0082E690E00E94C8070E9449008F
:1001D00090916000891313C00E94FE0388E890E0AC
:1001E0000E948D0360E081E00E9408040E944900A3
:1001F000682F81E290E00E94EB050C94CE000895F8
:1002000084EB0C941304CF930E94FE038BE990E0DF
:100210000E948D032FEF89E698E1215080409040A5
:10022000E1F700C0000060E081E00E940804C3E044
:100230000E9449009091770189132CC00E94FE030F
:1002400060E080E00E94080488EA90E00E948D034C
:100250002FEF89E698E1215080409040E1F700C0FF
:10026000000060E081E00E94080482EB90E00E94C0
:100270008D032FEF83ED90E3215080409040E1F714
:1002800000C000000E94000188E790E00E94C807BB
:1002900081E024C060E080E00E9408048FEB90E0E1
:1002A0000E948D0381E091E00E948D0380916001A6
:1002B0008F5F809360016CE081E00E940804609190
:1002C000600170E080E090E00E94A00381E091E096
:1002D0000E948D03C15009F0ABCF80E0CF9108950B
:1002E000CF9380915A01811106C080915B018111E9
:1002F00002C00E94B8000E948100811103C0CF910A
:100300000C949700813009F0E6C080915A01811168
:100310000AC080915B01811106C00E940301809395
:100320005F010E94D200C0915F01C13009F0D3C0CB
:100330000E94FE038AEC90E00E948D0360E081E061
:100340000E9408040E94490080935E01813009F0F8
:10035000A6C08DE690E00E94C8070E94FE038AEDC9
:1003600090E00E948D032FEF83ED90E321508040B9
:100370009040E1F700C0000080915A01813009F4FB
:10038000AAC00E94FE0386EE90E00E948D0360E00A
:1003900081E00E94080483EF90E00E948D0380E0DA
:1003A00091E00E948D036FE081E00E9408040E94AA
:1003B000490080935D018130D1F40E94FE038CE0FE
:1003C00091E00E948D0360E081E00E9408040E9499
:1003D000490080935C01813019F484E790E004C007
:1003E000823051F683E790E00E94C807C5CF823083
:1003F000C9F40E94FE038CE091E00E948D0360E04E
:1004000081E00E9408040E94490080935C018130D1
:1004100019F48CE690E0E8CF823009F0ADCF82E7A6
:1004200090E0E2CF8330C9F40E94FE038CE091E0BB
:100430000E948D0360E081E00E9408040E94490050
:1004400080935C01813019F486E690E0CDCF823054
:1004500009F092CF87E690E0C7CF8430C9F40E94BC
:10046000FE038CE091E00E948D0360E081E00E9439
:1004700008040E94490080935C01813019F480E7F0
:1004800090E0B2CF823009F077CF81E790E0ACCF37
:10049000893009F071CF81E080935A016DCF8230AD
:1004A000D1F481E690E00E94C8070E94FE0387E134
:1004B00091E00E948D0360E081E00E9408040E94A8
:1004C000490080935B01893031F485E690E00E9419
:1004D000C807C0935B01CF910895CF93DF93C5E424
:1004E000D1E061E089910E94520581E0C934D807CA
:1004F000C1F7DF91CF9108959F92AF92BF92CF92B3
:10050000DF92EF92FF920F931F93CF93DF9395E4C7
:10051000C92E91E0D92EC9E4D1E028E5F22EF601EA
:10052000E1906F0160E08E2D0E94520581E4A82EBB
:1005300081E0B82E00E010E0F50191905F01892D77
:100540000E943505811109C0FE01E00FF11FF08006
:10055000892D0E9435058823D9F30F5F1F4F043082
:10056000110551F761E08E2D0E9452052496F1E0AD
:10057000C935DF07A1F68F2DDF91CF911F910F9124
:10058000FF90EF90DF90CF90BF90AF909F90089535
:10059000CF93C82F60E081E00E9452058BB3817831
:1005A0008BBB6C2F669568779BB38BB3692B0E94CE
:1005B000DB0561E082E00E9452058FEC97E0019735
:1005C000F1F700C0000060E082E00E9452058FEC6D
:1005D00097E00197F1F700C000008BB381788BBBE7
:1005E00098E0C99FB001112468779BB38BB3692B46
:1005F0000E94DB0561E082E00E9452058FEC97E0EB
:100600000197F1F700C0000060E082E00E9452050F
:100610008FEC97E00197F1F700C00000CF910895AB
:10062000CF93C82F61E081E00E9452058BB383789D
:100630008BBB8C2F869588779BB3892B8BBB61E016
:1006400082E00E9452058FEC97E00197F1F700C01D
:10065000000060E082E00E9452058FEC97E0019775
:10066000F1F700C000008BB383788BBB28E0C29FFA
:10067000C001112488779BB3892B8BBB61E082E09A
:100680000E9452058FEC97E00197F1F700C000003F
:1006900060E082E00E9452058FEC97E00197F1F74D
:1006A00000C00000CF9108952FE788E391E021502A
:1006B00080409040E1F700C0000082E00E94C80244
:1006C0008FEC97E00197F1F700C0000088E20E94EC
:1006D000C8028FEC97E00197F1F700C000008CE0B2
:1006E0000E94C8028FEC97E00197F1F700C000006C
:1006F00081E00E94C8028FE99FE00197F1F700C0F6
:10070000000086E00E94C8028FE99FE00197F1F7A0
:1007100000C0000008950C9410030F931F93CF9313
:100720008C01C0E0F801EC0FF11D8081882321F0DD
:100730000E941003CF5FF6CFCF911F910F910895C4
:100740008F929F92AF92BF92EF92FF921F93CF939F
:10075000DF93CDB7DEB760970FB6F894DEBF0FBE5C
:10076000CDBF611571058105910591F480E3609617
:100770000FB6F894DEBF0FBECDBFDF91CF911F91B2
:10078000FF90EF90BF90AF909F908F900C941003CC
:1007900010E03AE0832E912CA12CB12CEE24E394AE
:1007A000F12CEC0EFD1EE10EF11CA50194010E943E
:1007B0001E08605DF70160831F5FB901CA01611502
:1007C00071058105910551F7112341F0FE01E10FFB
:1007D000F11D80810E9410031150F6CF60960FB674
:1007E000F894DEBF0FBECDBFDF91CF911F91FF9078
:1007F000EF90BF90AF909F908F90089581E00E94FE
:10080000C8028FEC97E00197F1F700C0000008954F
:10081000811102C080E803C0813021F480EC860F92
:100820000C94C8020895282F30E0A8EEB3E00E948F
:10083000400824EB30E040E050E00E941E082951BF
:100840003C4F3BBD2ABD089562E083E00E94C7068D
:1008500082E00E94030780E29EE497BD86BD089572
:100860000E9422050E9454030E946D020E942404EB
:100870000E94C2070E947001FDCF982F9695969511
:1008800096958770613009F441C020F0623009F418
:1008900089C00895913099F028F09230E9F09330B2
:1008A00041F108954AB321E030E0B90102C0660F7A
:1008B000771F8A95E2F7CB01842B8ABB089547B353
:1008C00021E030E0B90102C0660F771F8A95E2F798
:1008D000CB01842B87BB089544B321E030E0B901FC
:1008E00002C0660F771F8A95E2F7CB01842B84BB89
:1008F000089541B321E030E0B90102C0660F771FCF
:100900008A95E2F7CB01842B81BB08959130B9F031
:1009100028F0923029F19330A1F108954AB321E0F3
:1009200030E0B90102C0660F771F8A95E2F7CB016C
:100930008095942F98239ABB9BB389234BC047B3D0
:1009400021E030E0B90102C0660F771F8A95E2F717
:10095000CB018095942F982397BB98B389234CC0E3
:1009600044B321E030E0B90102C0660F771F8A95D9
:10097000E2F7CB018095942F982394BB95B38923FC
:100980004DC041B321E030E0B90102C0660F771FCE
:100990008A95E2F7CB018095942F982391BB92B36F
:1009A00089234EC09130C1F028F0923039F1933054
:1009B000B9F108954AB321E030E0B90102C0660FF1
:1009C000771F8A95E2F7CB01962F909594239ABBD7
:1009D0009BB3892B8BBB089547B321E030E0B9016D
:1009E00002C0660F771F8A95E2F7CB01962F90958C
:1009F000942397BB98B3892B88BB089544B321E017
:100A000030E0B90102C0660F771F8A95E2F7CB018B
:100A1000962F9095942394BB95B3892B85BB08950D
:100A200041B321E030E0B90102C0660F771F8A951B
:100A3000E2F7CB01962F9095942391BB92B3892B2B
:100A400082BB08950F931F93CF9301E211E0C0E0A2
:100A5000F80161918F018C2F0E943D04CF5FC0325D
:100A6000B9F7CF911F910F910895282F2770869580
:100A700086958695813049F030F0823041F08330A0
:100A800079F480B305C089B303C086B301C083B3D2
:100A900090E002C0959587952A95E2F781700895B8
:100AA00080E00895982F9770869586958695813079
:100AB00039F138F0823009F442C0833009F45DC066
:100AC0000895662379F0613009F074C04BB321E0DA
:100AD00030E0B90102C0660F771F9A95E2F7CB01AB
:100AE000842B0CC04BB321E030E0B90102C0660F8B
:100AF000771F9A95E2F7CB01809584238BBB0895ED
:100B0000662379F0613009F055C048B321E030E048
:100B1000B90102C0660F771F9A95E2F7CB01842BCB
:100B20000CC048B321E030E0B90102C0660F771F66
:100B30009A95E2F7CB018095842388BB08956623BC
:100B400071F06130B9F545B321E030E0B90102C080
:100B5000660F771F9A95E2F7CB01842B0CC045B343
:100B600021E030E0B90102C0660F771F9A95E2F7E5
:100B7000CB018095842385BB0895662371F0613095
:100B8000C9F442B321E030E0B90102C0660F771F1B
:100B90009A95E2F7CB01842B0CC042B321E030E000
:100BA000B90102C0660F771F9A95E2F7CB018095D5
:100BB000842382BB0895813041F028F0823039F0DF
:100BC000833039F008956BBB089568BB089565BB09
:100BD000089562BB0895E199FECF9FBB8EBB6DBBAC
:100BE000E29AE19A0895E199FECF9FBB8EBBE09A0D
:100BF0008DB308951F920F920FB60F9211242F9369
:100C00003F934F935F936F937F938F939F93AF9394
:100C1000BF93EF93FF93E0916501F09166013097E8
:100C200009F00995FF91EF91BF91AF919F918F913D
:100C30007F916F915F914F913F912F910F900FBED8
:100C40000F901F9018951F920F920FB60F921124BC
:100C50002F933F934F935F936F937F938F939F93C4
:100C6000AF93BF93EF93FF93E0916301F091640121
:100C7000309709F00995FF91EF91BF91AF919F9146
:100C80008F917F916F915F914F913F912F910F9035
:100C90000FBE0F901F9018951F920F920FB60F92D4
:100CA00011242F933F934F935F936F937F938F9371
:100CB0009F93AF93BF93EF93FF93E0916101F09106
:100CC0006201309709F00995FF91EF91BF91AF91C3
:100CD0009F918F917F916F915F914F913F912F9154
:100CE0000F900FBE0F901F9018951F920F920FB686
:100CF0000F9211242F933F934F935F936F937F93A2
:100D00008F939F93AF93BF93EF93FF93E0916F0106
:100D1000F0917001309709F00995FF91EF91BF9123
:100D2000AF919F918F917F916F915F914F913F9183
:100D30002F910F900FBE0F901F9018951F920F923A
:100D40000FB60F9211242F933F934F935F936F939E
:100D50007F938F939F93AF93BF93EF93FF93E09114
:100D60007101F0917201309709F00995FF91EF91AF
:100D7000BF91AF919F918F917F916F915F914F91B3
:100D80003F912F910F900FBE0F901F9018958230BA
:100D9000D9F050F4882379F0813071F58FB58E7FCA
:100DA0008FBD8FB58D7F21C08330D1F0843021F588
:100DB0008FB5816017C08FB58E7F8FBD8FB58D7F4A
:100DC0008FBD8EB5877F08C08FB58E7F8FBD8FB5E5
:100DD0008D7F8FBD8EB588608EBD8EB58F7E0BC02A
:100DE0008FB58E7F8FBD8FB582608FBD8EB58860C9
:100DF0008EBD8EB580618EBD8EB5887F8EBD8EB561
:100E0000682B6EBD0895813049F028F0823061F082
:100E1000833069F008958FB58F7B02C08FB58064F1
:100E20008FBD8FB58F7708C08FB58F7B02C08FB510
:100E300080648FBD8FB580688FBD08951F920F921B
:100E40000FB60F9211242F933F934F935F936F939D
:100E50007F938F939F93AF93BF93EF93FF93E09113
:100E60006D01F0916E01309709F00995FF91EF91B6
:100E7000BF91AF919F918F917F916F915F914F91B2
:100E80003F912F910F900FBE0F901F9018951F92BA
:100E90000F920FB60F9211242F933F934F935F93AE
:100EA0006F937F938F939F93AF93BF93EF93FF9332
:100EB000E0916B01F0916C01309709F00995FF9179
:100EC000EF91BF91AF919F918F917F916F915F91C2
:100ED0004F913F912F910F900FBE0F901F9018953B
:100EE0001F920F920FB60F9211242F933F934F939F
:100EF0005F936F937F938F939F93AF93BF93EF9382
:100F0000FF93E0916901F0916A01309709F009952A
:100F1000FF91EF91BF91AF919F918F917F916F91D1
:100F20005F914F913F912F910F900FBE0F901F90A7
:100F300018951F920F920FB60F9211242F933F9383
:100F40004F935F936F937F938F939F93AF93BF93D1
:100F5000EF93FF93E0916701F0916801309709F0FA
:100F60000995FF91EF91BF91AF919F918F917F91E3
:100F70006F915F914F913F912F910F900FBE0F9006
:100F80001F901895599883E389B9539A549A0895F4
:100F90005D9BFECF8CB908951F920F920FB60F92F2
:100FA00011242F933F934F935F936F937F938F936E
:100FB0009F93AF93BF93EF93FF93E0917301F091F1
:100FC0007401309709F00995FF91EF91BF91AF91AE
:100FD0009F918F917F916F915F914F913F912F9151
:100FE0000F900FBE0F901F9018951F920F920FB683
:100FF0000F9211242F933F934F935F936F937F939F
:101000008F939F93AF93BF93EF93FF93E0917501FD
:10101000F0917601309709F00995FF91EF91BF911A
:10102000AF919F918F917F916F915F914F913F9180
:101030002F910F900FBE0F901F901895A1E21A2EBE
:10104000AA1BBB1BFD010DC0AA1FBB1FEE1FFF1F6C
:10105000A217B307E407F50720F0A21BB30BE40BBC
:10106000F50B661F771F881F991F1A9469F7609503
:101070007095809590959B01AC01BD01CF010895BD
:10108000A29FB001B39FC001A39F700D811D1124C9
:10109000911DB29F700D811D1124911D0895F8942A
:0210A000FFCF80
:1010A200FF5345542050415353574F524400484F29
:1010B2004D4520535745455420484F4D4500656ED8
:1010C2007465722070696E00454E544552204E453B
:1010D200572050415353574F52440043484B2050DE
:1010E200415353574F524400444F4F52204F5045A3
:1010F2004E0057454C434F4D4520484F4D450057F4
:10110200524F4E4720434F444500313A4D414E55D0
:10111200414C20323A4155544F004D414E55414CBD
:10112200204D4F444500313A545620323A4C4947FB
:10113200485400333A46414E20343A50554D5000FF
:10114200202020202020202020202000313A4F4E35
:1011520020323A4F4646004155544F204D4F4445A8
:10116200000100000000000000000000000000007C
:10117200000000020202020000010002020200015D
:1011820000121314150C0D0E0F3738394134353651
:0A119200423132334363303D440024
:00000001FF
