:100000000C942A000C9447000C9447000C94470071
:100010000C9447000C9447000C9447000C94470044
:100020000C9447000C9447000C9447000C94470034
:100030000C9447000C9406050C9447000C942F0573
:100040000C9447000C9447000C9447000C94470014
:100050000C94470011241FBECFE5D8E0DEBFCDBF12
:1000600011E0A0E6B0E0E2E2FBE002C005900D92F4
:10007000A631B107D9F721E0A6E1B1E001C01D9298
:10008000A032B207E1F70E94F9020C948F050C949C
:10009000000085B3846085BB81E080931A010895D8
:1000A00085B38B7F85BB10921A01089585B382605A
:1000B00085BB81E080931901089585B38D7F85BB51
:1000C00010921901089585B3816085BB81E080930A
:1000D0001801089585B38E7F85BB1092180108958D
:1000E00085B3886085BB81E080931701089585B34F
:1000F000877F85BB1092170108950E94BF0287E891
:1001000090E00E94AC0208950E94BF0260E070E09F
:1001100081E090E00E94C9028FE890E00E94AC026A
:100120002FEF89E698E1215080409040E1F700C030
:1001300000001092160110921A01109219011092EB
:100140001801109217010E946A000E9450000E943C
:1001500077000E945D0008950E94BF0284E990E04C
:100160000E94AC022FEF83ED90E32150804090403D
:10017000E1F700C0000008950E94BF0281EA90E00C
:100180000E94AC022FEF83ED90E32150804090401D
:10019000E1F700C000000E94BF02089581E0809353
:1001A00016010E94FD0408950F931F93CF93DF93D0
:1001B000D82FC0E01CC00C2F10E0F801EE0FFF1F7D
:1001C000E00FF11FE05AFF4F6D2F80810E9458050C
:1001D000813061F4F801EE0FFF1F0E0F1F1FF801B1
:1001E000E05AFF4F0180F281E02D0995CF5FCD30BD
:1001F00010F3DF91CF911F910F91089580911A0113
:1002000081110BC060E070E080E090E00E94C902C4
:1002100088EA90E00E94AC020EC080911A01813001
:1002200051F460E070E080E090E00E94C90280EB51
:1002300090E00E94AC028091190181110BC068E02E
:1002400070E080E090E00E94C90287EB90E00E949D
:10025000AC020EC080911901813051F468E070E069
:1002600080E090E00E94C90282EC90E00E94AC0223
:100270008091180181110BC060E070E081E090E096
:100280000E94C9028CEC90E00E94AC020EC08091EA
:100290001801813051F460E070E081E090E00E944C
:1002A000C90285ED90E00E94AC0280911701811196
:1002B0000BC068E070E081E090E00E94C9028DED23
:1002C00090E00E94AC02089580911701813051F4B2
:1002D00068E070E081E090E00E94C90287EE90E063
:1002E0000E94AC020895EF92FF920F931F93CF9359
:1002F000DF930E94BF0280EF90E00E94AC022FEFDC
:1003000083ED90E3215080409040E1F700C0000071
:100310000E94BF020E94F9048EEC90E00E94010549
:1003200032C00E94EF027C010E94D7028C010E9421
:10033000DB02EC0120E2E21623E0F20618F00E9454
:100340005D0007C081E0E81682E0F80610F40E9424
:1003500056000C3291E0190718F00E94630005C0A6
:100360000B3F110510F40E946A00CA3822E0D20740
:1003700018F00E94700005C0C732D24010F40E94ED
:1003800077000E94FE0080911601882351F2DF91D0
:10039000CF911F910F91FF90EF9008950E94F50467
:1003A00080931F0180911F010E94D40080911F0142
:1003B000883721F480911F01823611F00E94FE00DF
:1003C0000895CF93C82F60E088E00E944C048BB35F
:1003D00081788BBB6C2F669568778BB3682B8BB35A
:1003E0000E94D90461E089E00E944C048FEC97E000
:1003F0000197F1F700C0000060E089E00E944C0422
:100400008FEC97E00197F1F700C000008BB3817883
:100410008BBB6C2F70E0660F771F660F771F660F20
:10042000771F68778BB3682B8BB30E94D90461E088
:1004300089E00E944C048FEC97E00197F1F700C02F
:10044000000060E089E00E944C048FEC97E0019787
:10045000F1F700C00000CF910895CF93C82F61E05D
:1004600088E00E944C048BB383788BBB8C2F8695DD
:1004700088779BB3892B8BBB61E089E00E944C0499
:100480008FEC97E00197F1F700C0000060E089E091
:100490000E944C048FEC97E00197F1F700C0000038
:1004A0008BB383788BBB8C2F90E0880F991F880FBC
:1004B000991F880F991F88779BB3892B8BBB61E0AD
:1004C00089E00E944C048FEC97E00197F1F700C09F
:1004D000000060E089E00E944C048FEC97E00197F7
:1004E000F1F700C00000CF9108952FE788E391E075
:1004F000215080409040E1F700C0000082E00E945F
:10050000E1018FEC97E00197F1F700C0000088E26D
:100510000E94E1018FEC97E00197F1F700C0000025
:100520008CE00E94E1018FEC97E00197F1F700C0A9
:10053000000081E00E94E1018FE99FE00197F1F75F
:1005400000C0000086E00E94E1018FE99FE0019772
:10055000F1F700C0000008950F931F93CF938C0113
:10056000C0E003C00E942D02CF5FF801EC0FF11D27
:1005700080818111F7CFCF911F910F91089581E074
:100580000E94E1018FEC97E00197F1F700C00000B5
:100590000895811105C080E8860F0E94E101089549
:1005A000813021F480EC860F0E94E101089580E003
:1005B0000E944003089581E00E942E039C0127536E
:1005C0003109A8EEB3E00E94800529E933E040E05C
:1005D00050E00E945E05C9018A569F4F089582E04F
:1005E0000E942E0320E034E0A901481B590BCA01E8
:1005F00008950E943C040E94750263E081E00E941D
:1006000007030E94E90478940E94CE01FDCF813057
:1006100059F018F0823079F014C087B18F7787B91C
:1006200087B18F7B87B90DC087B18F7787B987B1C5
:10063000806487B906C087B1806887B987B1806454
:1006400087B987B18F7D87B986B1887F86B986B132
:10065000682B66B986B1806886B9089597B1907E97
:1006600097B997B1892B87B986B1806486B98FEC29
:1006700097E00197F1F700C0000084B195B10895AB
:100680000E942E039C01A8E8B3E10E948005DC01D2
:10069000CB01072E7AE0B695A795979587957A9521
:1006A000D1F7702D0895982F969596959695877009
:1006B000613009F441C020F0623009F48DC0089522
:1006C000913099F028F09230E9F0933041F108959B
:1006D0004AB321E030E0B90102C0660F771F8A9566
:1006E000E2F7CB01842B8ABB089547B321E030E0C9
:1006F000B90102C0660F771F8A95E2F7CB01842B00
:1007000087BB089544B321E030E0B90102C0660F11
:10071000771F8A95E2F7CB01842B84BB089541B300
:1007200021E030E0B90102C0660F771F8A95E2F739
:10073000CB01842B81BB08959130C1F028F0923019
:1007400039F19330B9F108954AB321E030E0B901AD
:1007500002C0660F771F8A95E2F7CB018095942F30
:1007600098239ABB9BB389238BBB089547B321E0A1
:1007700030E0B90102C0660F771F8A95E2F7CB011E
:100780008095942F982397BB98B3892388BB0895AD
:1007900044B321E030E0B90102C0660F771F8A95AB
:1007A000E2F7CB018095942F982394BB95B38923CE
:1007B00085BB089541B321E030E0B90102C0660F66
:1007C000771F8A95E2F7CB018095942F982391BBF0
:1007D00092B3892382BB08959130C1F028F0923002
:1007E00039F19330B9F108954AB321E030E0B9010D
:1007F00002C0660F771F8A95E2F7CB01962F90957E
:1008000094239ABB9BB3892B8BBB089547B321E0FC
:1008100030E0B90102C0660F771F8A95E2F7CB017D
:10082000962F9095942397BB98B3892B88BB0895F6
:1008300044B321E030E0B90102C0660F771F8A950A
:10084000E2F7CB01962F9095942394BB95B3892B17
:1008500085BB089541B321E030E0B90102C0660FC5
:10086000771F8A95E2F7CB01962F9095942391BB41
:1008700092B3892B82BB0895CF93C0E009C0EC2FBF
:10088000F0E0EB50FF4F60818C2F0E945303CF5F4D
:10089000C032A8F3CF910895982F96959695969586
:1008A0008770913041F138F0923009F444C09330B0
:1008B00009F460C00895662381F0613009F078C0C2
:1008C0004BB321E030E0B90102C0660F771F8A9573
:1008D000E2F7CB01842B8BBB08954BB321E030E0D2
:1008E000B90102C0660F771F8A95E2F7CB018095A8
:1008F00084238BBB0895662381F0613009F058C0D2
:1009000048B321E030E0B90102C0660F771F8A9535
:10091000E2F7CB01842B88BB089548B321E030E097
:10092000B90102C0660F771F8A95E2F7CB01809567
:10093000842388BB0895662379F06130C9F545B3F7
:1009400021E030E0B90102C0660F771F8A95E2F717
:10095000CB01842B85BB089545B321E030E0B9017C
:1009600002C0660F771F8A95E2F7CB01809584233A
:1009700085BB0895662379F06130D1F442B321E05C
:1009800030E0B90102C0660F771F8A95E2F7CB010C
:10099000842B82BB089542B321E030E0B90102C04C
:1009A000660F771F8A95E2F7CB018095842382BB7F
:1009B0000895813041F028F0823039F0833039F0E9
:1009C00008956BBB089568BB089565BB089562BB2D
:1009D00008958BB18D7F8BB983E389B98AB1886023
:1009E0008AB98AB180618AB908955F9BFECF8CB1C4
:1009F00008958AB180688AB908958AB18F778AB9D3
:100A0000089590931C0180931B0108951F920F92EB
:100A10000FB60F9211242F933F934F935F936F93D1
:100A20007F938F939F93AF93BF93EF93FF93E09147
:100A30001B01F0911C01309709F00995FF91EF918E
:100A4000BF91AF919F918F917F916F915F914F91E6
:100A50003F912F910F900FBE0F901F9018951F92EE
:100A60000F920FB60F9211242F933F934F935F93E2
:100A70006F937F938F939F93AF93BF93EF93FF9366
:100A8000E0911D01F0911E01309709F00995FF9149
:100A9000EF91BF91AF919F918F917F916F915F91F6
:100AA0004F913F912F910F900FBE0F901F9018956F
:100AB000861302C081E0089580E00895A1E21A2E15
:100AC000AA1BBB1BFD010DC0AA1FBB1FEE1FFF1FF2
:100AD000A217B307E407F50720F0A21BB30BE40B42
:100AE000F50B661F771F881F991F1A9469F7609589
:100AF0007095809590959B01AC01BD01CF01089543
:100B0000A29FB001B39FC001A39F700D811D11244E
:100B1000911DB29F700D811D1124911D0895F894AF
:020B2000FFCF05
:100B220078AC00627D006DBC006173017449007392
:100B320050006C5600725D00666300676A00707058
:100B420000658400717700424C4F434B4544004599
:100B52005849540057656C636F6D6520486F6D6529
:100B6200004D414E55414C005456204F4646200000
:100B72005456204F4E20004C49474854204F464679
:100B820020004C49474854204F4E200046414E20F9
:100B92004F4646200046414E204F4E200050554DB4
:100BA20050204F4646200050554D50204F4E2000B9
:100BB2004155544F000101010000000000000000F7
:100BC2000000000000000000000000000001000220
:060BD20002020201000016
:00000001FF
